#!/usr/bin/env node

// ----------------------------------------------------------------------
/*

test cases:
===========
  * decode the raw transactions created in:
        https://github.com/warren-bank/ethereumjs-tx-sign/blob/master/tests/01_compare_output/js/compare_output.js
        https://github.com/warren-bank/ethereumjs-tx-sign/blob/master/tests/01_compare_output/run.log

input #0:
=========
const txData = {
  nonce:    clean_input(1),
  gasPrice: clean_input(30000000000),
  gasLimit: clean_input('0x100000'),
  to:       clean_input('0x0000000000000000000000000000000000000000'),
  value:    clean_input(0),
  data:     clean_input('6060604052341561000c57fe5b60405160a0806102d2833981016040528080519060200190919080519060200190919080519060200190919080519060200190919080519060200190919050505b84600060006101000a81548160ff02191690831515021790555083600060016101000a81548160ff021916908360ff1602179055508260018190555081600260006101000a81548173ffffffffffffffffffffffffffffffffffffffff021916908373ffffffffffffffffffffffffffffffffffffffff16021790555080600381600019169055505b50505050505b6101e7806100eb6000396000f30060606040526000357c0100000000000000000000000000000000000000000000000000000000900463ffffffff16806337af7327146100675780634aa2762e146100b9578063bc109174146100e7578063d2a174e51461010d578063fab261f414610137575bfe5b341561006f57fe5b610077610163565b604051808273ffffffffffffffffffffffffffffffffffffffff1673ffffffffffffffffffffffffffffffffffffffff16815260200191505060405180910390f35b34156100c157fe5b6100c9610189565b60405180826000191660001916815260200191505060405180910390f35b34156100ef57fe5b6100f761018f565b6040518082815260200191505060405180910390f35b341561011557fe5b61011d610195565b604051808215151515815260200191505060405180910390f35b341561013f57fe5b6101476101a8565b604051808260ff1660ff16815260200191505060405180910390f35b600260009054906101000a900473ffffffffffffffffffffffffffffffffffffffff1681565b60035481565b60015481565b600060009054906101000a900460ff1681565b600060019054906101000a900460ff16815600a165627a7a72305820ff945b9d7a6ff1e878bec54db295bb00226acfa2fb89419a3f9798c76963b1650029'),
  chainId:  0
}

output #0:
==========
'0xf90339018506fc23ac008310000094000000000000000000000000000000000000000080b902d26060604052341561000c57fe5b60405160a0806102d2833981016040528080519060200190919080519060200190919080519060200190919080519060200190919080519060200190919050505b84600060006101000a81548160ff02191690831515021790555083600060016101000a81548160ff021916908360ff1602179055508260018190555081600260006101000a81548173ffffffffffffffffffffffffffffffffffffffff021916908373ffffffffffffffffffffffffffffffffffffffff16021790555080600381600019169055505b50505050505b6101e7806100eb6000396000f30060606040526000357c0100000000000000000000000000000000000000000000000000000000900463ffffffff16806337af7327146100675780634aa2762e146100b9578063bc109174146100e7578063d2a174e51461010d578063fab261f414610137575bfe5b341561006f57fe5b610077610163565b604051808273ffffffffffffffffffffffffffffffffffffffff1673ffffffffffffffffffffffffffffffffffffffff16815260200191505060405180910390f35b34156100c157fe5b6100c9610189565b60405180826000191660001916815260200191505060405180910390f35b34156100ef57fe5b6100f761018f565b6040518082815260200191505060405180910390f35b341561011557fe5b61011d610195565b604051808215151515815260200191505060405180910390f35b341561013f57fe5b6101476101a8565b604051808260ff1660ff16815260200191505060405180910390f35b600260009054906101000a900473ffffffffffffffffffffffffffffffffffffffff1681565b60035481565b60015481565b600060009054906101000a900460ff1681565b600060019054906101000a900460ff16815600a165627a7a72305820ff945b9d7a6ff1e878bec54db295bb00226acfa2fb89419a3f9798c76963b16500291ba08aecbf204ffac9c31638c4cf508c5a83600fb755b869235aefe0708f460f8126a043b5fb3bd40cc632fa8f274e4bc5503c72a34b6349344b2d1b48b45055a3e110'

input #1:
=========
const txData = {
  nonce:    clean_input(1),
  gasPrice: clean_input(30000000000),
  gasLimit: clean_input('0x100000'),
  to:       clean_input('0x0000000000000000000000000000000000000000'),
  value:    clean_input(0),
  data:     clean_input('6060604052341561000c57fe5b60405160a0806102d2833981016040528080519060200190919080519060200190919080519060200190919080519060200190919080519060200190919050505b84600060006101000a81548160ff02191690831515021790555083600060016101000a81548160ff021916908360ff1602179055508260018190555081600260006101000a81548173ffffffffffffffffffffffffffffffffffffffff021916908373ffffffffffffffffffffffffffffffffffffffff16021790555080600381600019169055505b50505050505b6101e7806100eb6000396000f30060606040526000357c0100000000000000000000000000000000000000000000000000000000900463ffffffff16806337af7327146100675780634aa2762e146100b9578063bc109174146100e7578063d2a174e51461010d578063fab261f414610137575bfe5b341561006f57fe5b610077610163565b604051808273ffffffffffffffffffffffffffffffffffffffff1673ffffffffffffffffffffffffffffffffffffffff16815260200191505060405180910390f35b34156100c157fe5b6100c9610189565b60405180826000191660001916815260200191505060405180910390f35b34156100ef57fe5b6100f761018f565b6040518082815260200191505060405180910390f35b341561011557fe5b61011d610195565b604051808215151515815260200191505060405180910390f35b341561013f57fe5b6101476101a8565b604051808260ff1660ff16815260200191505060405180910390f35b600260009054906101000a900473ffffffffffffffffffffffffffffffffffffffff1681565b60035481565b60015481565b600060009054906101000a900460ff1681565b600060019054906101000a900460ff16815600a165627a7a72305820ff945b9d7a6ff1e878bec54db295bb00226acfa2fb89419a3f9798c76963b1650029'),
  chainId:  1
}

output #1:
==========
'0xf90339018506fc23ac008310000094000000000000000000000000000000000000000080b902d26060604052341561000c57fe5b60405160a0806102d2833981016040528080519060200190919080519060200190919080519060200190919080519060200190919080519060200190919050505b84600060006101000a81548160ff02191690831515021790555083600060016101000a81548160ff021916908360ff1602179055508260018190555081600260006101000a81548173ffffffffffffffffffffffffffffffffffffffff021916908373ffffffffffffffffffffffffffffffffffffffff16021790555080600381600019169055505b50505050505b6101e7806100eb6000396000f30060606040526000357c0100000000000000000000000000000000000000000000000000000000900463ffffffff16806337af7327146100675780634aa2762e146100b9578063bc109174146100e7578063d2a174e51461010d578063fab261f414610137575bfe5b341561006f57fe5b610077610163565b604051808273ffffffffffffffffffffffffffffffffffffffff1673ffffffffffffffffffffffffffffffffffffffff16815260200191505060405180910390f35b34156100c157fe5b6100c9610189565b60405180826000191660001916815260200191505060405180910390f35b34156100ef57fe5b6100f761018f565b6040518082815260200191505060405180910390f35b341561011557fe5b61011d610195565b604051808215151515815260200191505060405180910390f35b341561013f57fe5b6101476101a8565b604051808260ff1660ff16815260200191505060405180910390f35b600260009054906101000a900473ffffffffffffffffffffffffffffffffffffffff1681565b60035481565b60015481565b600060009054906101000a900460ff1681565b600060019054906101000a900460ff16815600a165627a7a72305820ff945b9d7a6ff1e878bec54db295bb00226acfa2fb89419a3f9798c76963b165002926a0b6679ad962172fb879a7db5589fc574a76083d296496ca8dd69ed4656c5b0ed0a02aebf0ad31f99352e82db6de4e897accdedb7faaa6f7913db65b36e8769ae31f'

input #2:
=========
const txData = {
  nonce:    clean_input(1),
  gasPrice: clean_input(30000000000),
  gasLimit: clean_input('0x100000'),
  to:       clean_input('0x0000000000000000000000000000000000000000'),
  value:    clean_input(0),
  data:     clean_input('6060604052341561000c57fe5b60405160a0806102d2833981016040528080519060200190919080519060200190919080519060200190919080519060200190919080519060200190919050505b84600060006101000a81548160ff02191690831515021790555083600060016101000a81548160ff021916908360ff1602179055508260018190555081600260006101000a81548173ffffffffffffffffffffffffffffffffffffffff021916908373ffffffffffffffffffffffffffffffffffffffff16021790555080600381600019169055505b50505050505b6101e7806100eb6000396000f30060606040526000357c0100000000000000000000000000000000000000000000000000000000900463ffffffff16806337af7327146100675780634aa2762e146100b9578063bc109174146100e7578063d2a174e51461010d578063fab261f414610137575bfe5b341561006f57fe5b610077610163565b604051808273ffffffffffffffffffffffffffffffffffffffff1673ffffffffffffffffffffffffffffffffffffffff16815260200191505060405180910390f35b34156100c157fe5b6100c9610189565b60405180826000191660001916815260200191505060405180910390f35b34156100ef57fe5b6100f761018f565b6040518082815260200191505060405180910390f35b341561011557fe5b61011d610195565b604051808215151515815260200191505060405180910390f35b341561013f57fe5b6101476101a8565b604051808260ff1660ff16815260200191505060405180910390f35b600260009054906101000a900473ffffffffffffffffffffffffffffffffffffffff1681565b60035481565b60015481565b600060009054906101000a900460ff1681565b600060019054906101000a900460ff16815600a165627a7a72305820ff945b9d7a6ff1e878bec54db295bb00226acfa2fb89419a3f9798c76963b1650029'),
  chainId:  2
}

output #2:
==========
'0xf90339018506fc23ac008310000094000000000000000000000000000000000000000080b902d26060604052341561000c57fe5b60405160a0806102d2833981016040528080519060200190919080519060200190919080519060200190919080519060200190919080519060200190919050505b84600060006101000a81548160ff02191690831515021790555083600060016101000a81548160ff021916908360ff1602179055508260018190555081600260006101000a81548173ffffffffffffffffffffffffffffffffffffffff021916908373ffffffffffffffffffffffffffffffffffffffff16021790555080600381600019169055505b50505050505b6101e7806100eb6000396000f30060606040526000357c0100000000000000000000000000000000000000000000000000000000900463ffffffff16806337af7327146100675780634aa2762e146100b9578063bc109174146100e7578063d2a174e51461010d578063fab261f414610137575bfe5b341561006f57fe5b610077610163565b604051808273ffffffffffffffffffffffffffffffffffffffff1673ffffffffffffffffffffffffffffffffffffffff16815260200191505060405180910390f35b34156100c157fe5b6100c9610189565b60405180826000191660001916815260200191505060405180910390f35b34156100ef57fe5b6100f761018f565b6040518082815260200191505060405180910390f35b341561011557fe5b61011d610195565b604051808215151515815260200191505060405180910390f35b341561013f57fe5b6101476101a8565b604051808260ff1660ff16815260200191505060405180910390f35b600260009054906101000a900473ffffffffffffffffffffffffffffffffffffffff1681565b60035481565b60015481565b600060009054906101000a900460ff1681565b600060019054906101000a900460ff16815600a165627a7a72305820ff945b9d7a6ff1e878bec54db295bb00226acfa2fb89419a3f9798c76963b165002928a0f7cb6066fdf4246ad55cb8cfc629c100dde31db6168603d4d6bd4a290ef5d069a06477940ad2aff9aa50529dfc18adcec593b0cafe72ab670d1ade99e660fb0213'

input #3:
=========
const txData = {
  nonce:    clean_input(1),
  gasPrice: clean_input(30000000000),
  gasLimit: clean_input('0x100000'),
  to:       clean_input('0x0000000000000000000000000000000000000000'),
  value:    clean_input(0),
  data:     clean_input('6060604052341561000c57fe5b60405160a0806102d2833981016040528080519060200190919080519060200190919080519060200190919080519060200190919080519060200190919050505b84600060006101000a81548160ff02191690831515021790555083600060016101000a81548160ff021916908360ff1602179055508260018190555081600260006101000a81548173ffffffffffffffffffffffffffffffffffffffff021916908373ffffffffffffffffffffffffffffffffffffffff16021790555080600381600019169055505b50505050505b6101e7806100eb6000396000f30060606040526000357c0100000000000000000000000000000000000000000000000000000000900463ffffffff16806337af7327146100675780634aa2762e146100b9578063bc109174146100e7578063d2a174e51461010d578063fab261f414610137575bfe5b341561006f57fe5b610077610163565b604051808273ffffffffffffffffffffffffffffffffffffffff1673ffffffffffffffffffffffffffffffffffffffff16815260200191505060405180910390f35b34156100c157fe5b6100c9610189565b60405180826000191660001916815260200191505060405180910390f35b34156100ef57fe5b6100f761018f565b6040518082815260200191505060405180910390f35b341561011557fe5b61011d610195565b604051808215151515815260200191505060405180910390f35b341561013f57fe5b6101476101a8565b604051808260ff1660ff16815260200191505060405180910390f35b600260009054906101000a900473ffffffffffffffffffffffffffffffffffffffff1681565b60035481565b60015481565b600060009054906101000a900460ff1681565b600060019054906101000a900460ff16815600a165627a7a72305820ff945b9d7a6ff1e878bec54db295bb00226acfa2fb89419a3f9798c76963b1650029'),
  chainId:  3
}

output #3:
==========
'0xf90339018506fc23ac008310000094000000000000000000000000000000000000000080b902d26060604052341561000c57fe5b60405160a0806102d2833981016040528080519060200190919080519060200190919080519060200190919080519060200190919080519060200190919050505b84600060006101000a81548160ff02191690831515021790555083600060016101000a81548160ff021916908360ff1602179055508260018190555081600260006101000a81548173ffffffffffffffffffffffffffffffffffffffff021916908373ffffffffffffffffffffffffffffffffffffffff16021790555080600381600019169055505b50505050505b6101e7806100eb6000396000f30060606040526000357c0100000000000000000000000000000000000000000000000000000000900463ffffffff16806337af7327146100675780634aa2762e146100b9578063bc109174146100e7578063d2a174e51461010d578063fab261f414610137575bfe5b341561006f57fe5b610077610163565b604051808273ffffffffffffffffffffffffffffffffffffffff1673ffffffffffffffffffffffffffffffffffffffff16815260200191505060405180910390f35b34156100c157fe5b6100c9610189565b60405180826000191660001916815260200191505060405180910390f35b34156100ef57fe5b6100f761018f565b6040518082815260200191505060405180910390f35b341561011557fe5b61011d610195565b604051808215151515815260200191505060405180910390f35b341561013f57fe5b6101476101a8565b604051808260ff1660ff16815260200191505060405180910390f35b600260009054906101000a900473ffffffffffffffffffffffffffffffffffffffff1681565b60035481565b60015481565b600060009054906101000a900460ff1681565b600060019054906101000a900460ff16815600a165627a7a72305820ff945b9d7a6ff1e878bec54db295bb00226acfa2fb89419a3f9798c76963b16500292aa0fa660aa45764838e9a581ab1f23e7732aa2993efe0e6e215109a6fe9fb84bba6a04d5700a11fe674a823025d67910155b10f1fa30e7463077adbca38f26ce5c784'

*/
// ----------------------------------------------------------------------

const unsign = require('../../../index')

const rawTx = [
  '0xf90339018506fc23ac008310000094000000000000000000000000000000000000000080b902d26060604052341561000c57fe5b60405160a0806102d2833981016040528080519060200190919080519060200190919080519060200190919080519060200190919080519060200190919050505b84600060006101000a81548160ff02191690831515021790555083600060016101000a81548160ff021916908360ff1602179055508260018190555081600260006101000a81548173ffffffffffffffffffffffffffffffffffffffff021916908373ffffffffffffffffffffffffffffffffffffffff16021790555080600381600019169055505b50505050505b6101e7806100eb6000396000f30060606040526000357c0100000000000000000000000000000000000000000000000000000000900463ffffffff16806337af7327146100675780634aa2762e146100b9578063bc109174146100e7578063d2a174e51461010d578063fab261f414610137575bfe5b341561006f57fe5b610077610163565b604051808273ffffffffffffffffffffffffffffffffffffffff1673ffffffffffffffffffffffffffffffffffffffff16815260200191505060405180910390f35b34156100c157fe5b6100c9610189565b60405180826000191660001916815260200191505060405180910390f35b34156100ef57fe5b6100f761018f565b6040518082815260200191505060405180910390f35b341561011557fe5b61011d610195565b604051808215151515815260200191505060405180910390f35b341561013f57fe5b6101476101a8565b604051808260ff1660ff16815260200191505060405180910390f35b600260009054906101000a900473ffffffffffffffffffffffffffffffffffffffff1681565b60035481565b60015481565b600060009054906101000a900460ff1681565b600060019054906101000a900460ff16815600a165627a7a72305820ff945b9d7a6ff1e878bec54db295bb00226acfa2fb89419a3f9798c76963b16500291ba08aecbf204ffac9c31638c4cf508c5a83600fb755b869235aefe0708f460f8126a043b5fb3bd40cc632fa8f274e4bc5503c72a34b6349344b2d1b48b45055a3e110',
  '0xf90339018506fc23ac008310000094000000000000000000000000000000000000000080b902d26060604052341561000c57fe5b60405160a0806102d2833981016040528080519060200190919080519060200190919080519060200190919080519060200190919080519060200190919050505b84600060006101000a81548160ff02191690831515021790555083600060016101000a81548160ff021916908360ff1602179055508260018190555081600260006101000a81548173ffffffffffffffffffffffffffffffffffffffff021916908373ffffffffffffffffffffffffffffffffffffffff16021790555080600381600019169055505b50505050505b6101e7806100eb6000396000f30060606040526000357c0100000000000000000000000000000000000000000000000000000000900463ffffffff16806337af7327146100675780634aa2762e146100b9578063bc109174146100e7578063d2a174e51461010d578063fab261f414610137575bfe5b341561006f57fe5b610077610163565b604051808273ffffffffffffffffffffffffffffffffffffffff1673ffffffffffffffffffffffffffffffffffffffff16815260200191505060405180910390f35b34156100c157fe5b6100c9610189565b60405180826000191660001916815260200191505060405180910390f35b34156100ef57fe5b6100f761018f565b6040518082815260200191505060405180910390f35b341561011557fe5b61011d610195565b604051808215151515815260200191505060405180910390f35b341561013f57fe5b6101476101a8565b604051808260ff1660ff16815260200191505060405180910390f35b600260009054906101000a900473ffffffffffffffffffffffffffffffffffffffff1681565b60035481565b60015481565b600060009054906101000a900460ff1681565b600060019054906101000a900460ff16815600a165627a7a72305820ff945b9d7a6ff1e878bec54db295bb00226acfa2fb89419a3f9798c76963b165002926a0b6679ad962172fb879a7db5589fc574a76083d296496ca8dd69ed4656c5b0ed0a02aebf0ad31f99352e82db6de4e897accdedb7faaa6f7913db65b36e8769ae31f',
  '0xf90339018506fc23ac008310000094000000000000000000000000000000000000000080b902d26060604052341561000c57fe5b60405160a0806102d2833981016040528080519060200190919080519060200190919080519060200190919080519060200190919080519060200190919050505b84600060006101000a81548160ff02191690831515021790555083600060016101000a81548160ff021916908360ff1602179055508260018190555081600260006101000a81548173ffffffffffffffffffffffffffffffffffffffff021916908373ffffffffffffffffffffffffffffffffffffffff16021790555080600381600019169055505b50505050505b6101e7806100eb6000396000f30060606040526000357c0100000000000000000000000000000000000000000000000000000000900463ffffffff16806337af7327146100675780634aa2762e146100b9578063bc109174146100e7578063d2a174e51461010d578063fab261f414610137575bfe5b341561006f57fe5b610077610163565b604051808273ffffffffffffffffffffffffffffffffffffffff1673ffffffffffffffffffffffffffffffffffffffff16815260200191505060405180910390f35b34156100c157fe5b6100c9610189565b60405180826000191660001916815260200191505060405180910390f35b34156100ef57fe5b6100f761018f565b6040518082815260200191505060405180910390f35b341561011557fe5b61011d610195565b604051808215151515815260200191505060405180910390f35b341561013f57fe5b6101476101a8565b604051808260ff1660ff16815260200191505060405180910390f35b600260009054906101000a900473ffffffffffffffffffffffffffffffffffffffff1681565b60035481565b60015481565b600060009054906101000a900460ff1681565b600060019054906101000a900460ff16815600a165627a7a72305820ff945b9d7a6ff1e878bec54db295bb00226acfa2fb89419a3f9798c76963b165002928a0f7cb6066fdf4246ad55cb8cfc629c100dde31db6168603d4d6bd4a290ef5d069a06477940ad2aff9aa50529dfc18adcec593b0cafe72ab670d1ade99e660fb0213',
  '0xf90339018506fc23ac008310000094000000000000000000000000000000000000000080b902d26060604052341561000c57fe5b60405160a0806102d2833981016040528080519060200190919080519060200190919080519060200190919080519060200190919080519060200190919050505b84600060006101000a81548160ff02191690831515021790555083600060016101000a81548160ff021916908360ff1602179055508260018190555081600260006101000a81548173ffffffffffffffffffffffffffffffffffffffff021916908373ffffffffffffffffffffffffffffffffffffffff16021790555080600381600019169055505b50505050505b6101e7806100eb6000396000f30060606040526000357c0100000000000000000000000000000000000000000000000000000000900463ffffffff16806337af7327146100675780634aa2762e146100b9578063bc109174146100e7578063d2a174e51461010d578063fab261f414610137575bfe5b341561006f57fe5b610077610163565b604051808273ffffffffffffffffffffffffffffffffffffffff1673ffffffffffffffffffffffffffffffffffffffff16815260200191505060405180910390f35b34156100c157fe5b6100c9610189565b60405180826000191660001916815260200191505060405180910390f35b34156100ef57fe5b6100f761018f565b6040518082815260200191505060405180910390f35b341561011557fe5b61011d610195565b604051808215151515815260200191505060405180910390f35b341561013f57fe5b6101476101a8565b604051808260ff1660ff16815260200191505060405180910390f35b600260009054906101000a900473ffffffffffffffffffffffffffffffffffffffff1681565b60035481565b60015481565b600060009054906101000a900460ff1681565b600060019054906101000a900460ff16815600a165627a7a72305820ff945b9d7a6ff1e878bec54db295bb00226acfa2fb89419a3f9798c76963b16500292aa0fa660aa45764838e9a581ab1f23e7732aa2993efe0e6e215109a6fe9fb84bba6a04d5700a11fe674a823025d67910155b10f1fa30e7463077adbca38f26ce5c784'
]

for (let chainId=0; chainId < rawTx.length; chainId++) {
  let {txData, signature} = unsign(rawTx[chainId])

  console.log('chainId:',   chainId,   "\n")
  console.log('txData:',    txData,    "\n")
  console.log('signature:', signature, "\n")
  console.log('----------------------------------------------------------------------', "\n")
}

// ----------------------------------------------------------------------
